{
  "_format": "hh-sol-artifact-1",
  "contractName": "CollateralManager",
  "sourceName": "contracts/CollateralManager.sol",
  "abi": [
    {
      "inputs": [
        {
          "internalType": "address",
          "name": "_lendingMarketplace",
          "type": "address"
        }
      ],
      "stateMutability": "nonpayable",
      "type": "constructor"
    },
    {
      "anonymous": false,
      "inputs": [
        {
          "indexed": true,
          "internalType": "address",
          "name": "user",
          "type": "address"
        },
        {
          "indexed": false,
          "internalType": "uint256",
          "name": "amount",
          "type": "uint256"
        }
      ],
      "name": "CollateralDeposited",
      "type": "event"
    },
    {
      "anonymous": false,
      "inputs": [
        {
          "indexed": true,
          "internalType": "address",
          "name": "user",
          "type": "address"
        },
        {
          "indexed": false,
          "internalType": "uint256",
          "name": "loanId",
          "type": "uint256"
        },
        {
          "indexed": false,
          "internalType": "uint256",
          "name": "amount",
          "type": "uint256"
        }
      ],
      "name": "CollateralLiquidated",
      "type": "event"
    },
    {
      "anonymous": false,
      "inputs": [
        {
          "indexed": true,
          "internalType": "address",
          "name": "user",
          "type": "address"
        },
        {
          "indexed": false,
          "internalType": "uint256",
          "name": "loanId",
          "type": "uint256"
        },
        {
          "indexed": false,
          "internalType": "uint256",
          "name": "amount",
          "type": "uint256"
        }
      ],
      "name": "CollateralLocked",
      "type": "event"
    },
    {
      "anonymous": false,
      "inputs": [
        {
          "indexed": true,
          "internalType": "address",
          "name": "user",
          "type": "address"
        },
        {
          "indexed": false,
          "internalType": "uint256",
          "name": "loanId",
          "type": "uint256"
        },
        {
          "indexed": false,
          "internalType": "uint256",
          "name": "amount",
          "type": "uint256"
        }
      ],
      "name": "CollateralReleased",
      "type": "event"
    },
    {
      "anonymous": false,
      "inputs": [
        {
          "indexed": true,
          "internalType": "address",
          "name": "user",
          "type": "address"
        },
        {
          "indexed": false,
          "internalType": "uint256",
          "name": "amount",
          "type": "uint256"
        }
      ],
      "name": "CollateralWithdrawn",
      "type": "event"
    },
    {
      "inputs": [
        {
          "internalType": "uint256",
          "name": "",
          "type": "uint256"
        }
      ],
      "name": "collateralLocks",
      "outputs": [
        {
          "internalType": "address",
          "name": "borrower",
          "type": "address"
        },
        {
          "internalType": "uint256",
          "name": "amount",
          "type": "uint256"
        },
        {
          "internalType": "uint256",
          "name": "loanId",
          "type": "uint256"
        },
        {
          "internalType": "uint256",
          "name": "lockTime",
          "type": "uint256"
        },
        {
          "internalType": "bool",
          "name": "isLocked",
          "type": "bool"
        }
      ],
      "stateMutability": "view",
      "type": "function"
    },
    {
      "inputs": [],
      "name": "depositCollateral",
      "outputs": [],
      "stateMutability": "payable",
      "type": "function"
    },
    {
      "inputs": [
        {
          "internalType": "address",
          "name": "user",
          "type": "address"
        }
      ],
      "name": "getAvailableCollateral",
      "outputs": [
        {
          "internalType": "uint256",
          "name": "",
          "type": "uint256"
        }
      ],
      "stateMutability": "view",
      "type": "function"
    },
    {
      "inputs": [
        {
          "internalType": "address",
          "name": "user",
          "type": "address"
        }
      ],
      "name": "getTotalLockedCollateral",
      "outputs": [
        {
          "internalType": "uint256",
          "name": "",
          "type": "uint256"
        }
      ],
      "stateMutability": "view",
      "type": "function"
    },
    {
      "inputs": [
        {
          "internalType": "address",
          "name": "user",
          "type": "address"
        }
      ],
      "name": "getUserCollateral",
      "outputs": [
        {
          "internalType": "uint256",
          "name": "",
          "type": "uint256"
        }
      ],
      "stateMutability": "view",
      "type": "function"
    },
    {
      "inputs": [],
      "name": "lendingMarketplace",
      "outputs": [
        {
          "internalType": "address",
          "name": "",
          "type": "address"
        }
      ],
      "stateMutability": "view",
      "type": "function"
    },
    {
      "inputs": [
        {
          "internalType": "uint256",
          "name": "loanId",
          "type": "uint256"
        },
        {
          "internalType": "address",
          "name": "liquidator",
          "type": "address"
        }
      ],
      "name": "liquidateCollateral",
      "outputs": [],
      "stateMutability": "nonpayable",
      "type": "function"
    },
    {
      "inputs": [
        {
          "internalType": "address",
          "name": "borrower",
          "type": "address"
        },
        {
          "internalType": "uint256",
          "name": "amount",
          "type": "uint256"
        },
        {
          "internalType": "uint256",
          "name": "loanId",
          "type": "uint256"
        }
      ],
      "name": "lockCollateral",
      "outputs": [],
      "stateMutability": "nonpayable",
      "type": "function"
    },
    {
      "inputs": [
        {
          "internalType": "uint256",
          "name": "loanId",
          "type": "uint256"
        }
      ],
      "name": "releaseCollateral",
      "outputs": [],
      "stateMutability": "nonpayable",
      "type": "function"
    },
    {
      "inputs": [
        {
          "internalType": "address",
          "name": "",
          "type": "address"
        }
      ],
      "name": "userCollateral",
      "outputs": [
        {
          "internalType": "uint256",
          "name": "",
          "type": "uint256"
        }
      ],
      "stateMutability": "view",
      "type": "function"
    },
    {
      "inputs": [
        {
          "internalType": "address",
          "name": "",
          "type": "address"
        },
        {
          "internalType": "uint256",
          "name": "",
          "type": "uint256"
        }
      ],
      "name": "userLockedLoans",
      "outputs": [
        {
          "internalType": "uint256",
          "name": "",
          "type": "uint256"
        }
      ],
      "stateMutability": "view",
      "type": "function"
    },
    {
      "inputs": [
        {
          "internalType": "uint256",
          "name": "amount",
          "type": "uint256"
        }
      ],
      "name": "withdrawCollateral",
      "outputs": [],
      "stateMutability": "nonpayable",
      "type": "function"
    }
  ],
  "bytecode": "0x60803461007457601f610a2038819003918201601f19168301916001600160401b038311848410176100795780849260209460405283398101031261007457516001600160a01b0381169081900361007457600380546001600160a01b03191691909117905560405161099090816100908239f35b600080fd5b634e487b7160e01b600052604160045260246000fdfe6040608081526004908136101561001557600080fd5b600091823560e01c9081631691f7061461055057816339007b77146104cc57816350d22b6a146104a65781636112fe2e146103ab5781636f75814014610319578163ad375da4146102f0578163b6f7132f146102c8578163bb69bc711461027e578163d837daae1461021f578163eed373ab146101c6578163f0472c49146100e0575063f69f1e4a146100a757600080fd5b346100dc5760203660031901126100dc5760209181906001600160a01b036100cd6106a0565b16815280845220549051908152f35b5080fd5b919050346101c257806003193601126101c2576001600160a01b0360243581811692918435918490036101be5761011c816003541633146106e9565b8186526001602052858080808681209889019761013c60ff8a54166107bd565b60018a01988954878c541684528360205261015b8a852091825461094d565b9055805460ff191690558854908282156101b5575bf1156101ab577f4f65008ff243a1aab5777a6563d91c319b667f92b3f74af652fc9cd4f247d20b93945416935482519182526020820152a280f35b82513d87823e3d90fd5b506108fc610170565b8580fd5b8280fd5b5050346100dc57806003193601126100dc576101e06106a0565b6001600160a01b0316825260026020528082208054602435939084101561021c575060209261020e916106bb565b91905490519160031b1c8152f35b80fd5b919050346101c25760203660031901126101c2578060a09383358152600160205220600180851b038154169260018201549260ff6002840154926003850154940154169381519586526020860152840152606083015215156080820152f35b5050346100dc5760203660031901126100dc576102c16020926102bb836102a36106a0565b6001600160a01b038116845283875292205491610824565b9061094d565b9051908152f35b5050346100dc5760203660031901126100dc5760209181906001600160a01b036100cd6106a0565b5050346100dc57816003193601126100dc5760035490516001600160a01b039091168152602090f35b9050826003193601126101c2573415610371575033825281602052808220610342348254610801565b9055513481527fd7243f6f8212d5188fd054141cf6ea89cfc0d91facb8c3afe2f88a135848014260203392a280f35b6020606492519162461bcd60e51b8352820152601560248201527409aeae6e840c8cae0dee6d2e840e6dedaca408aa89605b1b6044820152fd5b9050346101c2576020806003193601126104a2578135913385528482526103d78385872054101561073f565b826103f36103e433610824565b3388528785528688205461094d565b1061046a575033845283815282842061040d83825461094d565b90558380838015610460575b8280929181923390f115610454577fc30fcfbcaac9e0deffa719714eaa82396ff506a0d0d0eebe170830177288715d9192519283523392a280f35b505051903d90823e3d90fd5b6108fc9150610419565b60649184519162461bcd60e51b8352820152601460248201527310dbdb1b185d195c985b081a5cc81b1bd8dad95960621b6044820152fd5b8380fd5b5050346100dc5760203660031901126100dc576020906102c16104c76106a0565b610824565b919050346101c25760203660031901126101c2577f0e87599d50b2d37d144e41413e648b91573fb4fe230313a0bd74cc2487ea0d769082356001808060a01b0361051b816003541633146106e9565b82875281602052838720958601805461053660ff82166107bd565b60ff1916905585541694015482519182526020820152a280f35b8383346100dc5760603660031901126100dc5761056b6106a0565b906024356044359060018060a01b03809461058b826003541633146106e9565b1693848652856020526105a38285882054101561073f565b8684516105af8161078b565b868152602081018481528682018681526060830191428352608084019560018752888c526001602052898c209451166bffffffffffffffffffffffff60a01b855416178455516001840155516002830155516003820155019051151560ff8019835416911617905583855260026020528285208054906801000000000000000082101561068d578161066a9160017faff82f4178df227ea409be11c927e414a908fb01481236913cec80ea866b2468979695940181556106bb565b81549060031b9084821b91600019901b191617905582519182526020820152a280f35b634e487b7160e01b875260418852602487fd5b600435906001600160a01b03821682036106b657565b600080fd5b80548210156106d35760005260206000200190600090565b634e487b7160e01b600052603260045260246000fd5b156106f057565b60405162461bcd60e51b815260206004820152602160248201527f4f6e6c79206c656e64696e67206d61726b6574706c6163652063616e2063616c6044820152601b60fa1b6064820152608490fd5b1561074657565b60405162461bcd60e51b815260206004820152601760248201527f496e73756666696369656e7420636f6c6c61746572616c0000000000000000006044820152606490fd5b60a0810190811067ffffffffffffffff8211176107a757604052565b634e487b7160e01b600052604160045260246000fd5b156107c457565b60405162461bcd60e51b815260206004820152601560248201527410dbdb1b185d195c985b081b9bdd081b1bd8dad959605a1b6044820152606490fd5b9190820180921161080e57565b634e487b7160e01b600052601160045260246000fd5b90600060018060a01b038093169283825260026020916002835260409182852083519081868254918281520191885286882090885b888282106109395750505050819003601f01601f1916810167ffffffffffffffff811182821017610925578452855b815181101561091a57858160051b830101516000528560808a60018084528860002060ff60048b51926108ba8461078b565b8b8154169485855281015480988501528a8101548d850152600381015460608501520154161515938491015282610910575b50506108fc575b50600101610888565b6109099060019298610801565b96906108f3565b1490508a386108ec565b509496505050505050565b634e487b7160e01b87526041600452602487fd5b835485529093019260019283019201610859565b9190820391821161080e5756fea2646970667358221220bff63b0d47debc8d6454e51c1fec3b0ec77239ccdfff3662c014b7498de5814f64736f6c63430008180033",
  "linkReferences": {},
  "deployedLinkReferences": {}
}