{
  "_format": "hh-sol-artifact-1",
  "contractName": "LendingMarketplace",
  "sourceName": "contracts/LendingMarketPlace.sol",
  "abi": [
    {
      "inputs": [
        {
          "internalType": "address",
          "name": "_collateralManager",
          "type": "address"
        },
        {
          "internalType": "address",
          "name": "_repaymentTracker",
          "type": "address"
        }
      ],
      "stateMutability": "nonpayable",
      "type": "constructor"
    },
    {
      "anonymous": false,
      "inputs": [
        {
          "indexed": true,
          "internalType": "address",
          "name": "borrower",
          "type": "address"
        }
      ],
      "name": "CreditScoreComputed",
      "type": "event"
    },
    {
      "anonymous": false,
      "inputs": [
        {
          "indexed": true,
          "internalType": "address",
          "name": "borrower",
          "type": "address"
        }
      ],
      "name": "DataSubmitted",
      "type": "event"
    },
    {
      "anonymous": false,
      "inputs": [
        {
          "indexed": true,
          "internalType": "uint256",
          "name": "loanId",
          "type": "uint256"
        },
        {
          "indexed": true,
          "internalType": "address",
          "name": "lender",
          "type": "address"
        },
        {
          "indexed": true,
          "internalType": "address",
          "name": "borrower",
          "type": "address"
        }
      ],
      "name": "LoanFunded",
      "type": "event"
    },
    {
      "anonymous": false,
      "inputs": [
        {
          "indexed": true,
          "internalType": "uint256",
          "name": "loanId",
          "type": "uint256"
        },
        {
          "indexed": true,
          "internalType": "uint256",
          "name": "offerId",
          "type": "uint256"
        }
      ],
      "name": "LoanMatched",
      "type": "event"
    },
    {
      "anonymous": false,
      "inputs": [
        {
          "indexed": true,
          "internalType": "uint256",
          "name": "loanId",
          "type": "uint256"
        },
        {
          "indexed": true,
          "internalType": "address",
          "name": "borrower",
          "type": "address"
        }
      ],
      "name": "LoanRequested",
      "type": "event"
    },
    {
      "anonymous": false,
      "inputs": [
        {
          "indexed": true,
          "internalType": "uint256",
          "name": "offerId",
          "type": "uint256"
        },
        {
          "indexed": true,
          "internalType": "address",
          "name": "lender",
          "type": "address"
        }
      ],
      "name": "OfferCreated",
      "type": "event"
    },
    {
      "inputs": [
        {
          "internalType": "uint256",
          "name": "loanId",
          "type": "uint256"
        },
        {
          "internalType": "uint256",
          "name": "offerId",
          "type": "uint256"
        }
      ],
      "name": "checkLoanMatch",
      "outputs": [
        {
          "internalType": "bool",
          "name": "",
          "type": "bool"
        }
      ],
      "stateMutability": "nonpayable",
      "type": "function"
    },
    {
      "inputs": [],
      "name": "collateralManager",
      "outputs": [
        {
          "internalType": "contract CollateralManager",
          "name": "",
          "type": "address"
        }
      ],
      "stateMutability": "view",
      "type": "function"
    },
    {
      "inputs": [],
      "name": "computeCreditScore",
      "outputs": [],
      "stateMutability": "nonpayable",
      "type": "function"
    },
    {
      "inputs": [
        {
          "internalType": "externalEuint64",
          "name": "minScoreExternal",
          "type": "bytes32"
        },
        {
          "internalType": "bytes",
          "name": "minScoreProof",
          "type": "bytes"
        },
        {
          "internalType": "externalEuint64",
          "name": "maxAmountExternal",
          "type": "bytes32"
        },
        {
          "internalType": "bytes",
          "name": "maxAmountProof",
          "type": "bytes"
        },
        {
          "internalType": "externalEuint64",
          "name": "interestRateExternal",
          "type": "bytes32"
        },
        {
          "internalType": "bytes",
          "name": "interestProof",
          "type": "bytes"
        },
        {
          "internalType": "uint256",
          "name": "collateralPercentage",
          "type": "uint256"
        },
        {
          "internalType": "uint256",
          "name": "plainInterestRate",
          "type": "uint256"
        },
        {
          "internalType": "uint256",
          "name": "plainMaxLoanAmount",
          "type": "uint256"
        }
      ],
      "name": "createLenderOffer",
      "outputs": [
        {
          "internalType": "uint256",
          "name": "",
          "type": "uint256"
        }
      ],
      "stateMutability": "payable",
      "type": "function"
    },
    {
      "inputs": [
        {
          "internalType": "externalEuint64",
          "name": "amountExternal",
          "type": "bytes32"
        },
        {
          "internalType": "bytes",
          "name": "amountProof",
          "type": "bytes"
        },
        {
          "internalType": "externalEuint64",
          "name": "durationExternal",
          "type": "bytes32"
        },
        {
          "internalType": "bytes",
          "name": "durationProof",
          "type": "bytes"
        },
        {
          "internalType": "uint256",
          "name": "plainRequestedAmount",
          "type": "uint256"
        },
        {
          "internalType": "uint256",
          "name": "plainDuration",
          "type": "uint256"
        }
      ],
      "name": "createLoanRequest",
      "outputs": [
        {
          "internalType": "uint256",
          "name": "",
          "type": "uint256"
        }
      ],
      "stateMutability": "nonpayable",
      "type": "function"
    },
    {
      "inputs": [
        {
          "internalType": "uint256",
          "name": "loanId",
          "type": "uint256"
        },
        {
          "internalType": "uint256",
          "name": "offerId",
          "type": "uint256"
        }
      ],
      "name": "fundLoan",
      "outputs": [],
      "stateMutability": "nonpayable",
      "type": "function"
    },
    {
      "inputs": [],
      "name": "getCreditScore",
      "outputs": [
        {
          "internalType": "euint64",
          "name": "",
          "type": "bytes32"
        }
      ],
      "stateMutability": "view",
      "type": "function"
    },
    {
      "inputs": [
        {
          "internalType": "uint256",
          "name": "offerId",
          "type": "uint256"
        }
      ],
      "name": "getLenderOffer",
      "outputs": [
        {
          "internalType": "address",
          "name": "lender",
          "type": "address"
        },
        {
          "internalType": "uint256",
          "name": "availableFunds",
          "type": "uint256"
        },
        {
          "internalType": "bool",
          "name": "isActive",
          "type": "bool"
        }
      ],
      "stateMutability": "view",
      "type": "function"
    },
    {
      "inputs": [
        {
          "internalType": "uint256",
          "name": "offerId",
          "type": "uint256"
        }
      ],
      "name": "getLenderOfferMetadata",
      "outputs": [
        {
          "internalType": "address",
          "name": "lender",
          "type": "address"
        },
        {
          "internalType": "uint256",
          "name": "plainInterestRate",
          "type": "uint256"
        },
        {
          "internalType": "uint256",
          "name": "plainMaxLoanAmount",
          "type": "uint256"
        },
        {
          "internalType": "uint256",
          "name": "availableFunds",
          "type": "uint256"
        },
        {
          "internalType": "bool",
          "name": "isActive",
          "type": "bool"
        },
        {
          "internalType": "uint256",
          "name": "collateralPercentage",
          "type": "uint256"
        }
      ],
      "stateMutability": "view",
      "type": "function"
    },
    {
      "inputs": [
        {
          "internalType": "uint256",
          "name": "loanId",
          "type": "uint256"
        }
      ],
      "name": "getLoanRequest",
      "outputs": [
        {
          "internalType": "address",
          "name": "borrower",
          "type": "address"
        },
        {
          "internalType": "uint256",
          "name": "timestamp",
          "type": "uint256"
        },
        {
          "internalType": "bool",
          "name": "isActive",
          "type": "bool"
        },
        {
          "internalType": "bool",
          "name": "isFunded",
          "type": "bool"
        },
        {
          "internalType": "address",
          "name": "lender",
          "type": "address"
        }
      ],
      "stateMutability": "view",
      "type": "function"
    },
    {
      "inputs": [],
      "name": "hasCreditScore",
      "outputs": [
        {
          "internalType": "bool",
          "name": "",
          "type": "bool"
        }
      ],
      "stateMutability": "view",
      "type": "function"
    },
    {
      "inputs": [],
      "name": "hasSubmittedData",
      "outputs": [
        {
          "internalType": "bool",
          "name": "",
          "type": "bool"
        }
      ],
      "stateMutability": "view",
      "type": "function"
    },
    {
      "inputs": [
        {
          "internalType": "uint256",
          "name": "",
          "type": "uint256"
        }
      ],
      "name": "lenderOffers",
      "outputs": [
        {
          "internalType": "address",
          "name": "lender",
          "type": "address"
        },
        {
          "internalType": "euint64",
          "name": "minCreditScore",
          "type": "bytes32"
        },
        {
          "internalType": "euint64",
          "name": "maxLoanAmount",
          "type": "bytes32"
        },
        {
          "internalType": "euint64",
          "name": "interestRate",
          "type": "bytes32"
        },
        {
          "internalType": "uint256",
          "name": "availableFunds",
          "type": "uint256"
        },
        {
          "internalType": "bool",
          "name": "isActive",
          "type": "bool"
        },
        {
          "internalType": "uint256",
          "name": "collateralPercentage",
          "type": "uint256"
        },
        {
          "internalType": "uint256",
          "name": "plainInterestRate",
          "type": "uint256"
        },
        {
          "internalType": "uint256",
          "name": "plainMaxLoanAmount",
          "type": "uint256"
        }
      ],
      "stateMutability": "view",
      "type": "function"
    },
    {
      "inputs": [
        {
          "internalType": "uint256",
          "name": "",
          "type": "uint256"
        },
        {
          "internalType": "uint256",
          "name": "",
          "type": "uint256"
        }
      ],
      "name": "loanOfferMatches",
      "outputs": [
        {
          "internalType": "bool",
          "name": "",
          "type": "bool"
        }
      ],
      "stateMutability": "view",
      "type": "function"
    },
    {
      "inputs": [
        {
          "internalType": "uint256",
          "name": "",
          "type": "uint256"
        }
      ],
      "name": "loanRequests",
      "outputs": [
        {
          "internalType": "address",
          "name": "borrower",
          "type": "address"
        },
        {
          "internalType": "euint64",
          "name": "requestedAmount",
          "type": "bytes32"
        },
        {
          "internalType": "euint64",
          "name": "duration",
          "type": "bytes32"
        },
        {
          "internalType": "uint256",
          "name": "timestamp",
          "type": "uint256"
        },
        {
          "internalType": "bool",
          "name": "isActive",
          "type": "bool"
        },
        {
          "internalType": "bool",
          "name": "isFunded",
          "type": "bool"
        },
        {
          "internalType": "address",
          "name": "lender",
          "type": "address"
        },
        {
          "internalType": "uint256",
          "name": "plainRequestedAmount",
          "type": "uint256"
        },
        {
          "internalType": "uint256",
          "name": "plainDuration",
          "type": "uint256"
        }
      ],
      "stateMutability": "view",
      "type": "function"
    },
    {
      "inputs": [],
      "name": "nextLoanId",
      "outputs": [
        {
          "internalType": "uint256",
          "name": "",
          "type": "uint256"
        }
      ],
      "stateMutability": "view",
      "type": "function"
    },
    {
      "inputs": [],
      "name": "nextOfferId",
      "outputs": [
        {
          "internalType": "uint256",
          "name": "",
          "type": "uint256"
        }
      ],
      "stateMutability": "view",
      "type": "function"
    },
    {
      "inputs": [],
      "name": "owner",
      "outputs": [
        {
          "internalType": "address",
          "name": "",
          "type": "address"
        }
      ],
      "stateMutability": "view",
      "type": "function"
    },
    {
      "inputs": [],
      "name": "protocolId",
      "outputs": [
        {
          "internalType": "uint256",
          "name": "",
          "type": "uint256"
        }
      ],
      "stateMutability": "pure",
      "type": "function"
    },
    {
      "inputs": [],
      "name": "repaymentTracker",
      "outputs": [
        {
          "internalType": "contract RepaymentTracker",
          "name": "",
          "type": "address"
        }
      ],
      "stateMutability": "view",
      "type": "function"
    },
    {
      "inputs": [
        {
          "internalType": "externalEuint64",
          "name": "incomeExternal",
          "type": "bytes32"
        },
        {
          "internalType": "bytes",
          "name": "incomeProof",
          "type": "bytes"
        },
        {
          "internalType": "externalEuint64",
          "name": "repaymentScoreExternal",
          "type": "bytes32"
        },
        {
          "internalType": "bytes",
          "name": "repaymentProof",
          "type": "bytes"
        },
        {
          "internalType": "externalEuint64",
          "name": "liabilitiesExternal",
          "type": "bytes32"
        },
        {
          "internalType": "bytes",
          "name": "liabilitiesProof",
          "type": "bytes"
        }
      ],
      "name": "submitBorrowerData",
      "outputs": [],
      "stateMutability": "nonpayable",
      "type": "function"
    },
    {
      "inputs": [
        {
          "internalType": "address",
          "name": "_collateralManager",
          "type": "address"
        }
      ],
      "name": "updateCollateralManager",
      "outputs": [],
      "stateMutability": "nonpayable",
      "type": "function"
    },
    {
      "inputs": [
        {
          "internalType": "address",
          "name": "_repaymentTracker",
          "type": "address"
        }
      ],
      "name": "updateRepaymentTracker",
      "outputs": [],
      "stateMutability": "nonpayable",
      "type": "function"
    }
  ],
  "bytecode": "0x608034620001d657601f6200248938819003918201601f19168301916001600160401b03831184841017620001db578084926040948552833981010312620001d657806200005d60206200005560609462000211565b920162000211565b62000067620001f1565b6000938185809352826020820152826040820152015262000087620001f1565b92606073687820221192c5b662b25367f70076a37bc79b6c9485815273848b0066793bcc60346da1f49049357399b8d59580602083015273a02cda4ca3a71d7c46997716f4283aa851c2881291826040820152731364cbbf2cdf5032c47d8226a6f6fbd2afcdacac938491015260018060a01b0319967f9e7b61f58c47dc699ac88507c4f5bb9f121c03808c5676a8078fe583e464970090888254161790557f9e7b61f58c47dc699ac88507c4f5bb9f121c03808c5676a8078fe583e464970190878254161790557f9e7b61f58c47dc699ac88507c4f5bb9f121c03808c5676a8078fe583e464970290868254161790557f9e7b61f58c47dc699ac88507c4f5bb9f121c03808c5676a8078fe583e46497039085825416179055338482541617905560018060a01b03809216836007541617600755169060085416176008556040516122629081620002278239f35b600080fd5b634e487b7160e01b600052604160045260246000fd5b60405190608082016001600160401b03811183821017620001db57604052565b51906001600160a01b0382168203620001d65756fe608080604052600436101561001357600080fd5b600090813560e01c9081631b3b867114611ade5750806323be345c14611ab557806324b6cf801461189257806332130b06146117e457806335df066f146117b2578063368ac87d146115495780633ad36fc1146114fa5780633c82471b146114d15780634152843014610b9457806341b6dd2014610b625780635659434b14610b335780635cd3844614610aa35780635da1953814610a255780635f5d065514610a0757806387c51459146109e95780638da5cb5b146109c2578063b378a44914610976578063d1b332f4146108e2578063d1cbc9e7146107a4578063d289259614610754578063da1f12ab14610737578063ed372b51146104b15763f4512bb61461011e57600080fd5b346104ae5761012c36611b71565b8183526020600281526040842090828552600381526040852060018060a01b0393848254163303610478576004840192610172845460ff81169081610469575b50611c95565b8688526004815260408820828952815260ff60408920541615610432576004830191825460068501549081810291818304149015171561041e5761271090048760075416888854168b60405163b6f7132f60e01b81528260048201528681602481875afa908115610413578592916103de575b5010610399578b90823b156103955760648c91836040519586948593630b48fb8360e11b8552600485015288602485015260448401525af1801561038a57610369575b50828a93926101048b868c8c968b82600854169289541698600660076005830154930154910154916040519a8b998a98630254acff60e41b8a5260048a015260248901526044880152336064880152608487015260a486015260c485015260e48401525af1801561035e5761032c575b50508354610100600160b01b0319163360101b62010000600160b01b0316176101001784559081908190819060ff199687815416905588885416905490828215610323575bf1156103185760050190815416905554169033907fe88df70f334c7437cb932c4b6c8e26bb4b53c69830a65574244cd54d11bf891b8480a480f35b6040513d87823e3d90fd5b506108fc6102dd565b908092503d8311610357575b6103428183611bce565b8101031261035257863880610298565b600080fd5b503d610338565b6040513d85823e3d90fd5b9280926101048b8b9d61037d8c9698611bba565b9d50505092939150610228565b6040513d8d823e3d90fd5b5080fd5b60405162461bcd60e51b815260048101869052601760248201527f496e73756666696369656e7420636f6c6c61746572616c0000000000000000006044820152606490fd5b809250878092503d831161040c575b6103f78183611bce565b8101031261040857839051386101e5565b8c80fd5b503d6103ed565b6040513d84823e3d90fd5b634e487b7160e01b8a52601160045260248afd5b6064906040519062461bcd60e51b82526004820152601060248201526f131bd85b881b9bdd081b585d18da195960821b6044820152fd5b60ff915060081c16153861016c565b60405162461bcd60e51b815260048101849052600e60248201526d2737ba103a3432903632b73232b960911b6044820152606490fd5b80fd5b50346104ae576104c036611b71565b81839293526020926002845260408320828452600385526040842060018060a01b03908183541686526001875260408620610509600485015460ff811690816104695750611c95565b60ff600583015416156106ff5760ff600482015460081c16156106c25787929161059460036105a8930161053f81543090611fe9565b61055d6001880197610552308a54611fe9565b600230910154611fe9565b600183019061056d308354611fe9565b61058b6002850194610580308754611fe9565b600330910154611fe9565b54905490611ee7565b9461059f3087611fe9565b54905490611f68565b906105b33083611fe9565b8184156106b2575b1561069e575b60649060008051602061220d83398151915254169387604051958694859363d99882d560e01b8552600485015260248401528160448401525af18015610693578490610660575b61061491503090611fe9565b8083526004845260408320828452845260408320600160ff198254161790557fa0589ff78a7658429d83ca94f1fce9d2386aae8dc0cab25400704468e9894a8f6040519380a360018152f35b508481813d831161068c575b6106768183611bce565b81010312610688576106149051610608565b8380fd5b503d61066c565b6040513d86823e3d90fd5b905060646106aa6121bd565b9190506105c1565b93506106bc6121bd565b936105bb565b60405162461bcd60e51b8152600481018990526015602482015274426f72726f77657220686173206e6f2073636f726560581b6044820152606490fd5b60405162461bcd60e51b815260048101899052601060248201526f4f66666572206e6f742061637469766560801b6044820152606490fd5b50346104ae57806003193601126104ae5760206040516127118152f35b50346104ae5760203660031901126104ae576004356001600160a01b03818116918290036107a05761078a908354163314611c5c565b6001600160601b0360a01b600854161760085580f35b8280fd5b50346104ae5760c03660031901126104ae5767ffffffffffffffff6024358181116107a0576107d7903690600401611b43565b91906064358281116108de576107f1903690600401611b43565b9260a4359081116108da576004946108406108386108509461083061082961081f6108489736908d01611b43565b9990963691611bf0565b8a35611cd6565b973691611bf0565b604435611cd6565b933691611bf0565b608435611cd6565b9061085b3084611fe9565b6108653082611fe9565b61086f3083611fe9565b6108793384611fe9565b6108833382611fe9565b61088d3383611fe9565b3385526001602052604085209283556001830155600282015501600160ff19825416179055337f7cf04b38110eacbe0e60df8f46381224043bab8c781cd856552889e5d771f45b8280a280f35b8580fd5b8480fd5b50346104ae5760203660031901126104ae57604061012091600435815260026020522060018060a01b03808254169160018101549160028201546003830154600484015491600660058601549501549560405197885260208801526040870152606086015260ff81161515608086015260ff8160081c16151560a086015260101c1660c084015260e0830152610100820152f35b50346104ae5760203660031901126104ae576004356001600160a01b03818116918290036107a0576109ac908354163314611c5c565b6001600160601b0360a01b600754161760075580f35b50346104ae57806003193601126104ae57546040516001600160a01b039091168152602090f35b50346104ae57806003193601126104ae576020600554604051908152f35b50346104ae57806003193601126104ae576020600654604051908152f35b50346104ae57806003193601126104ae57338152600160205260ff600460408320015460081c1615610a6a576003604060209233815260018452200154604051908152f35b60405162461bcd60e51b8152602060048201526011602482015270139bc81cd8dbdc994818dbdb5c1d5d1959607a1b6044820152606490fd5b50346104ae5760203660031901126104ae57604061012091600435815260036020522060018060a01b038154169060018101549060028101546003820154600483015460ff6005850154169160068501549360086007870154960154966040519889526020890152604088015260608701526080860152151560a085015260c084015260e0830152610100820152f35b50346104ae57806003193601126104ae5760ff6004604060209333815260018552200154166040519015158152f35b50346104ae5760ff6040602092610b7836611b71565b9082526004855282822090825284522054166040519015158152f35b50346104ae57806003193601126104ae5733815260016020526040812060ff6004820154161561149857610bca81543090611fe9565b60018101610bd9308254611fe9565b610be7306002840154611fe9565b54610bf06120e7565b60008051602061220d83398151915254604051639cd07acb60e01b81526002600482015260056024820152906020908290604490829089906001600160a01b03165af1908115610318578591611464575b50610c4f90610c5593612066565b90611e29565b610c5f3082611fe9565b82825491816002850154610c7161216d565b60008051602061220d83398151915254604051639cd07acb60e01b815260c86004820152600560248201529560209187916044918391906001600160a01b03165af194851561035e57839561142d575b5082939495602060018060a01b0360008051602061220d8339815191525416604460405180988193639cd07acb60e01b835261015e6004840152600560248401525af19485156106935784956113f9575b5060008051602061220d83398151915254604051639cd07acb60e01b8152601e6004820152600560248201529460209186916044918391906001600160a01b03165af19384156113ee5789946113b6575b5060008051602061220d83398151915254604051639cd07acb60e01b8152603260048201526005602482015290602090829060449082908e906001600160a01b03165af19081156113ab578a91611375575b5060008051602061220d83398151915254604051639cd07acb60e01b8152606460048201526005602482015290602090829060449082908f906001600160a01b03165af190811561038a578b9161133b575b5091610e56610e45610e6693610e35610e2460649760209a612066565b99610e2f308c611fe9565b85612066565b93610e403086611fe9565b612066565b91610e503084611fe9565b87611f68565b95610e613088611fe9565b611ee7565b610e703082611fe9565b8960018060a01b0360008051602061220d8339815191525416604051998a958694637702dcff60e01b86526004860152602485015260448401525af193841561126f578694611304575b50906064602092610ecb3087611fe9565b8760018060a01b0360008051602061220d83398151915254166040519788958694637702dcff60e01b86526004860152602485015260448401525af19081156106935784916112ce575b610f299250610f243083611fe9565b611e29565b610f333082611fe9565b610f3b6120e7565b9083602060018060a01b0360008051602061220d8339815191525416604460405180948193639cd07acb60e01b83526103526004840152600560248401525af190811561031857859161129c575b50828293831561128c575b811561127a575b602090606460018060a01b0360008051602061220d833981519152541696896040519889948593637210768160e01b8552600485015260248401528160448401525af193841561126f57869461123b575b50610ff73085611fe9565b81938394841561122b575b8315611219575b602090606460018060a01b0360008051602061220d8339815191525416978a604051998a9485936385362ee760e01b8552600485015260248401528160448401525af194851561120e5787956111d3575b5090606460209261106b3088611fe9565b8860018060a01b0360008051602061220d83398151915254166040519788958694637702dcff60e01b86526004860152602485015260448401525af191821561031857859261119e575b506064602092936110c63086611fe9565b8660018060a01b0360008051602061220d83398151915254166040519687958694637702dcff60e01b86526004860152602485015260448401525af190811561035e57839161116c575b5061111b3082611fe9565b6111253082611fe9565b61112f3382611fe9565b6003820155600401805461ff001916610100179055337f35c051474ae9a49c4965587f63ff1e277c6dfd71d5f0c5f8e1093cc37f3348738280a280f35b90506020813d602011611196575b8161118760209383611bce565b810103126107a0575138611110565b3d915061117a565b91506020823d6020116111cb575b816111b960209383611bce565b810103126108de5790519060646110b5565b3d91506111ac565b919094506020823d602011611206575b816111f060209383611bce565b8101031261120257905193606461105a565b8680fd5b3d91506111e3565b6040513d89823e3d90fd5b50602061122461216d565b9050611009565b945061123561216d565b94611002565b9093506020813d602011611267575b8161125760209383611bce565b810103126108da57519238610fec565b3d915061124a565b6040513d88823e3d90fd5b50602061128561216d565b9050610f9b565b935061129661216d565b93610f94565b90506020813d6020116112c6575b816112b760209383611bce565b810103126108de575138610f89565b3d91506112aa565b90506020823d6020116112fc575b816112e960209383611bce565b8101031261068857610f29915190610f15565b3d91506112dc565b919093506020823d602011611333575b8161132160209383611bce565b810103126108da579051926064610eba565b3d9150611314565b9290506020833d60201161136d575b8161135760209383611bce565b81010312611369579151610e56610e07565b8a80fd5b3d915061134a565b90506020813d6020116113a3575b8161139060209383611bce565b8101031261139f575138610db5565b8980fd5b3d9150611383565b6040513d8c823e3d90fd5b9093506020813d6020116113e6575b816113d260209383611bce565b810103126113e257519238610d63565b8880fd5b3d91506113c5565b6040513d8b823e3d90fd5b9094506020813d602011611425575b8161141560209383611bce565b8101031261068857519338610d12565b3d9150611408565b929394506020833d60201161145c575b8161144a60209383611bce565b81010312610688578392519493610cc1565b3d915061143d565b90506020813d602011611490575b8161147f60209383611bce565b810103126108de5751610c55610c41565b3d9150611472565b60405162461bcd60e51b8152602060048201526011602482015270139bc819185d18481cdd589b5a5d1d1959607a1b6044820152606490fd5b50346104ae57806003193601126104ae576008546040516001600160a01b039091168152602090f35b50346104ae5760203660031901126104ae576040606091600435815260036020522060018060a01b038154169060ff600560048301549201541690604051928352602083015215156040820152f35b506101203660031901126104ae5767ffffffffffffffff9060243582811161039557611579903690600401611b43565b929060643582811161068857611593903690600401611b43565b91909260a4359081116108de576115ae903690600401611b43565b92909560c435943415611778576127108611611733576020976115f5610838610848936115ed6115e56008996115fd983691611bf0565b600435611cd6565b963691611bf0565b953691611bf0565b926116083083611fe9565b6116123082611fe9565b61161c3085611fe9565b6116263383611fe9565b6116303382611fe9565b61163a3385611fe9565b6006549461164786611c37565b6006556116f56040519561165a87611b87565b33875289870194855260408701938452606087019081526080870134815260a08801916001835260c0890194855260e089019560e43587526101008a01976101043589528b8d5260038e5260408d209a60018060a01b039051166001600160601b0360a01b8c5416178b555160018b01555160028a0155516003890155516004880155511515600587019060ff801983541691151516179055565b5160068501555160078401555191015560405191817fb9fc72ab4a132463342124fb4c5ebd64bee8a9874c05d37f846eaf5758eff4b2339280a38152f35b60405162461bcd60e51b815260206004820152601e60248201527f436f6c6c61746572616c2070657263656e7461676520746f6f206869676800006044820152606490fd5b60405162461bcd60e51b81526020600482015260126024820152714d757374206465706f7369742066756e647360701b6044820152606490fd5b50346104ae57806003193601126104ae5760ff600460406020933381526001855220015460081c166040519015158152f35b50346104ae5760203660031901126104ae57600435815260036020526040902080546001600160a01b03163381900361185c5781600760c0930154906008810154600482015490600660ff600585015416930154936040519586526020860152604085015260608401521515608083015260a0820152f35b60405162461bcd60e51b815260206004820152600e60248201526d2737ba103cb7bab91037b33332b960911b6044820152606490fd5b50346104ae5760c03660031901126104ae5767ffffffffffffffff90602435828111610395576118c6903690600401611b43565b926064359081116107a0576118df903690600401611b43565b903384526001602052604084209260ff600485015460081c1615611a7057610838611949926119186115e56119209460209a3691611bf0565b943691611bf0565b9261192b3084611fe9565b6119353085611fe9565b61193f3384611fe9565b6105803385611fe9565b60066005549261195884611c37565b60055560405161196781611b87565b33815286810193845260408101918252611a38606082019142835260808101906001825260a0810189815260c08201908a825260e0830195608435875261010084019760a43589528b8d5260028e5260408d209a60018060a01b03809651166001600160601b0360a01b8d5416178c555160018c01555160028b01555160038a0155611a0660048a0194511515859060ff801983541691151516179055565b5183549151610100600160b01b031990921690151560081b61ff001617911660101b62010000600160b01b0316179055565b5160058401555191015560405191817fb7401c74d1dadd9b1c5778044555b38bcde050d7371b0e27212cfe1c418febcd339280a38152f35b60405162461bcd60e51b815260206004820152601c60248201527f4d7573742068617665206372656469742073636f7265206669727374000000006044820152606490fd5b50346104ae57806003193601126104ae576007546040516001600160a01b039091168152602090f35b90503461039557602036600319011261039557604060a0926004358152600260205220600180841b0390818154169060046003820154910154918452602084015260ff81161515604084015260ff8160081c161515606084015260101c166080820152f35b9181601f840112156103525782359167ffffffffffffffff8311610352576020838186019501011161035257565b6040906003190112610352576004359060243590565b610120810190811067ffffffffffffffff821117611ba457604052565b634e487b7160e01b600052604160045260246000fd5b67ffffffffffffffff8111611ba457604052565b90601f8019910116810190811067ffffffffffffffff821117611ba457604052565b92919267ffffffffffffffff8211611ba45760405191611c1a601f8201601f191660200184611bce565b829481845281830111610352578281602093846000960137010152565b6000198114611c465760010190565b634e487b7160e01b600052601160045260246000fd5b15611c6357565b60405162461bcd60e51b815260206004820152600a60248201526927b7363c9037bbb732b960b11b6044820152606490fd5b15611c9c57565b60405162461bcd60e51b81526020600482015260126024820152714c6f616e206e6f7420617661696c61626c6560701b6044820152606490fd5b60008051602061220d8339815191525460405163196d0b9b60e01b815260048101929092523360248301526080604483015282516084830181905291926001600160a01b039291831691849160005b828110611e115750509181600060a4828683836020998401015260056064830152601f801991011681010301925af1918215611dd157600092611ddd575b507f9e7b61f58c47dc699ac88507c4f5bb9f121c03808c5676a8078fe583e46497005416803b1561035257604051630f8e573b60e21b815260048101839052336024820152906000908290604490829084905af18015611dd157611dc5575090565b611dce90611bba565b90565b6040513d6000823e3d90fd5b9091506020813d602011611e09575b81611df960209383611bce565b8101031261035257519038611d63565b3d9150611dec565b602082820181015160a4898401015287945001611d25565b8015611ed9575b8115611ec9575b60018060a01b0360008051602061220d8339815191525416916040519163022f65e760e31b835260048301526024820152602081606481600080968160448401525af1918215611ebd578092611e8c57505090565b9091506020823d602011611eb5575b81611ea860209383611bce565b810103126104ae57505190565b3d9150611e9b565b604051903d90823e3d90fd5b9050611ed361216d565b90611e37565b50611ee261216d565b611e30565b8015611f5a575b8115611f4a575b60018060a01b0360008051602061220d83398151915254169160405191631391547f60e01b835260048301526024820152602081606481600080968160448401525af1918215611ebd578092611e8c57505090565b9050611f5461216d565b90611ef5565b50611f6361216d565b611eee565b8015611fdb575b8115611fcb575b60018060a01b0360008051602061220d83398151915254169160405191631d44e90160e21b835260048301526024820152602081606481600080968160448401525af1918215611ebd578092611e8c57505090565b9050611fd561216d565b90611f76565b50611fe461216d565b611f6f565b7f9e7b61f58c47dc699ac88507c4f5bb9f121c03808c5676a8078fe583e4649700546001600160a01b031691823b1561035257604051635ca4b5b160e11b815260048101929092526001600160a01b03166024820152906000908290604490829084905af18015611dd15761205b5750565b61206490611bba565b565b80156120d9575b81156120c9575b60018060a01b0360008051602061220d83398151915254169160405191630afe14ad60e31b835260048301526024820152602081606481600080968160448401525af1918215611ebd578092611e8c57505090565b90506120d361216d565b90612074565b506120e261216d565b61206d565b60008051602061220d83398151915254604051639cd07acb60e01b815261012c60048201526005602482015290602090829060449082906000906001600160a01b03165af1908115611dd15760009161213e575090565b90506020813d602011612165575b8161215960209383611bce565b81010312610352575190565b3d915061214c565b60018060a01b0360008051602061220d8339815191525416604051639cd07acb60e01b815260208160448160008096816004840152600560248401525af1918215611ebd578092611e8c57505090565b60018060a01b0360008051602061220d8339815191525416604051639cd07acb60e01b8152602081604481600080968160048401528160248401525af1918215611ebd578092611e8c5750509056fe9e7b61f58c47dc699ac88507c4f5bb9f121c03808c5676a8078fe583e4649701a264697066735822122080ec7e0539a12540db5806b03b3e0b3c38fcb95573785d263abbee1fc9bd206164736f6c63430008180033",
  "linkReferences": {},
  "deployedLinkReferences": {}
}